:0C0000000C942A000C9400000C940000EA
:10000C000C9400000C9400000C9400000C94000064
:10001C000C9400000C9400000C9400000C94000054
:10002C000C9400000C9400000C9400000C94000044
:10003C000C9400000C9400000C9400000C94000034
:10004C000C9400000C940000F894EE27ECBBF1E04B
:10005C00FBBFEBBFE5BF8DE0A2E0BB27ED938A951C
:10006C00E9F780E094E0A0E6ED930197E9F7EFE57E
:10007C00EDBFE4E0EEBFC0E6D1E00C944500E0E05B
:10008C00EABBEBBBE7BBE8BBEFE7E4BBE0E8E5BBF7
:10009C00E0E0E1BBE2BBE3BFE2BFECBFEFBDEEBD16
:1000AC00EDBDECBDE7BDE6BDEBBDEABDE9BDE8BD10
:1000BC00E2BDE5BDE4BDE3BDE9BFE5BFE4BFEAB920
:1000CC00E0E8E8B9E0E0E0BFE6B9EDB9E6BF9F993A
:1000DC0023C0A89AA8E2B0E021D0A898A99AA8E2D7
:1000EC00B0E01CD0A998AA9AA8E2B0E017D0AA98C0
:1000FC00AB9AA8E2B0E012D0AB98AC9AA8E2B0E010
:10010C000DD0AC98AD9AA8E2B0E008D0AD98AE9AFC
:10011C00A8E2B0E003D0AE98DACFFFCF109639F05A
:10012C00A89580EA9FE00197F1F71197C9F7089518
:00000001FF
